:10000000A0C00000B9C00000B7C00000B5C000002B
:10001000B3C00000B1C00000AFC00000ADC0000020
:10002000ABC00000A9C00000A7C00000ABC3000027
:10003000A3C00000A1C000009FC000009DC0000040
:100040009BC0000099C0000097C0000095C0000050
:1000500093C0000091C000008FC0000041C10000AB
:100060008BC0000089C0000087C0000085C0000070
:1000700083C0000082049E0450059E045005D604EF
:10008000F3045005130525051A0347003500300019
:10009000320020004800450052004F00200053006D
:1000A0004500000010034100720064007500690003
:1000B0006E006F0000000403090409023B00020106
:1000C00000A09609040100010300000009211101AC
:1000D00000012297000705820314000109040000B3
:1000E0000103010200092111010001223A00070564
:1000F000810308000112011001000000086D048B4B
:10010000C003270102030105010902A1010901A1A0
:1001100000950375010509190129031500250181C1
:1001200002950175058101750895020501093009DF
:10013000311581257F81067508950109388106C032
:10014000C00011241FBECFEFD2E0DEBFCDBF11E053
:10015000A0E0B1E0E2EEFEE002C005900D92AE300C
:10016000B107D9F721E0AEE0B1E001C01D92A63A97
:10017000B207E1F72BD0B3C643CFCF93DF9384B759
:10018000877F84BF0FB6F894A8958091600088613E
:1001900080936000109260000FBE8CE090E090931E
:1001A000CD008093CC0086E08093CA001092C800F6
:1001B000C9ECD0E088E18883539A5A9AD8D284E077
:1001C00085BD88E98883DF91CF910895CF93DF9330
:1001D00000D000D0CDB7DEB7D0DF2FB7F89487E1DD
:1001E00091E0909398018093970190939A01809366
:1001F00099012FBF78948E010B5F1F4F7C01DD2486
:10020000D3949FB7F89480919B019FBF843060F195
:10021000DE011196E0919901F0919A019191F0938C
:100220009A01E0939901E759F14021F4F0929A0183
:10023000E09299012FB7F89480919B0181508093AF
:100240009B012FBF9D93A017B10721F7D0920E01FC
:10025000898180930F018A81809310018B81809323
:1002600011018C818093120180E091E070D521D43E
:10027000C8CF0895089580E091E047D5E2EEF0E020
:10028000808184608083089580E091E023C4809120
:100290000B0190910C01009729F0019790930C01AC
:1002A00080930B0108950F931F9380910F019091FC
:1002B0001001A0911101B0911201F9018083918385
:1002C000A283B38384E090E0F801918380838091DE
:1002D0000E01811110920E011F910F910895089542
:1002E0001F920F920FB60F9211242F938F939F930B
:1002F000EF93FF938091CE009EB39430F1F4E091A0
:100300009701F09198018083E0919701F091980115
:10031000CF0101969093980180939701875991405E
:1003200021F487E191E0928381839FB7F8948091D3
:100330009B018F5F80939B019FBFFF91EF919F91E6
:100340008F912F910F900FBE0F901F901895292F0E
:10035000332723303105E1F058F42130310599F08D
:100360002230310569F58BE390E02AEB30E02CC0B8
:100370002132310501F12232310511F58AE390E095
:1003800027E031E021C082E190E025EF30E01CC0A1
:1003900099278130910549F028F0029789F4E8E81F
:1003A000F0E005C0E6EBF0E002C0E4EAF0E08491A2
:1003B00090E09F0109C089E090E02CEC30E004C09F
:1003C00080E090E020E030E0FA013183208308955E
:1003D000AC0128E030E080E02417350720F48F5F7F
:1003E000220F331FF9CF8295807F08958093E90013
:1003F000EBEEF0E0808181608083EDEEF0E0108232
:100400006093EC0040838091EE00881F8827881F4E
:1004100008951092F40080E08093E9001092F000BB
:100420001092E8001092ED009091EB009E7F909367
:10043000EB008F5F853081F7089580919E0187FFE3
:100440000FC08091E80082FD04C08EB38111F9CF06
:1004500010C08091E8008B770AC08EB3882349F0E2
:100460008091E80080FFF9CF8091E8008E7780933B
:10047000E800089585E69091EC0090FF05C090910A
:10048000E80090FF05C01BC09091E80092FD17C0E6
:100490009EB39923B1F09EB39530A9F09091EB00F3
:1004A00095FD13C09091E10092FFE5CF9091E1009E
:1004B0009B7F9093E1008150F1F684E0089580E005
:1004C000089582E0089583E0089581E00895EF9211
:1004D000FF920F931F93CF93DF938C01EB017A016F
:1004E000C9DF81111DC02097D1F08091E80085FD02
:1004F0000EC08091E8008E778093E800E114F1044B
:1005000079F3F7010995813059F785E009C0F801C1
:1005100080818093F10021970F5F1F4FE4CF80E02F
:10052000DF91CF911F910F91FF90EF90089520914F
:10053000A4013091A5012617370748F06115710510
:1005400039F42091E8002E772093E80001C0B9012A
:1005500030E06115710561F12091E80023FD37C09D
:100560002091E80022FD2DC02EB3222391F12EB35D
:10057000253089F12091E80020FFEBCF2091F20097
:10058000FC01CF016115710549F0283038F48191E3
:100590008093F100615071092F5FF3CF31E0283073
:1005A00009F030E02091E8002E772093E800D1CFC9
:1005B0003111D2CF06C08EB3882359F08EB3853067
:1005C00051F08091E80082FFF6CF80E0089581E04D
:1005D000089582E0089583E008952091A401309168
:1005E000A5012617370748F06115710539F42091E8
:1005F000E8002E772093E80001C0B90130E06115D2
:10060000710569F12091E80023FD38C02091E800D0
:1006100022FD2EC02EB3222399F12EB3253091F165
:100620002091E80020FFEBCF2091F200FC01CF01E8
:100630006115710551F0283040F484918093F100E8
:10064000615071092F5F3196F2CF31E0283009F007
:1006500030E02091E8002E772093E800D0CF3111D0
:10066000D1CF06C08EB3882359F08EB3853051F0B8
:100670008091E80082FFF6CF80E0089581E0089540
:1006800082E0089583E008956115710529F42091B1
:10069000E8002B772093E8006115710511F1209196
:1006A000E80023FD24C02EB3222319F12EB32530F8
:1006B00011F12091E80022FFEFCF2091F2002223D8
:1006C00031F301962091F100FC01319720836150B4
:1006D000710999F7DCCF8EB3882359F08EB385303A
:1006E00051F08091E80080FFF6CF80E0089581E02E
:1006F000089582E0089583E008953ED040D01EBA68
:1007000010929C0184E089BD89B5826089BD09B4DD
:1007100000FEFDCF8091D800982F9F779093D8004E
:1007200080688093D800809163008E7F80936300FF
:100730008091D8008F7D8093D8008091E0008E7FDB
:100740008093E0008091E1008E7F8093E1008091B2
:10075000E20081608093E2008091E100877F8093D6
:10076000E1008091E20088608093E2000895C5DF97
:1007700081E080939D0108951092E2000895109207
:10078000E10008951F920F920FB60F9211242F933C
:100790003F934F935F936F937F938F939F93AF9309
:1007A000BF93EF93FF938091E10080FF1BC0809186
:1007B000E20080FF17C08091E1008E7F8093E1000E
:1007C0008091E2008E7F8093E2008091E200806160
:1007D0008093E2008091D80080628093D80019BC99
:1007E0001EBA48DD8091E10084FF29C08091E200BB
:1007F00084FF25C084E089BD89B5826089BD09B4C4
:1008000000FEFDCF8091D8008F7D8093D80080912D
:10081000E1008F7E8093E1008091E2008F7E8093E3
:10082000E2008091E20081608093E20080919C016F
:10083000811102C081E001C084E08EBB1ADD80918D
:10084000E10083FF22C08091E20083FF1EC08091FF
:10085000E100877F8093E10082E08EBB10929C01D3
:100860008091E1008E7F8093E1008091E2008E7F95
:100870008093E2008091E20080618093E200C9DD14
:1008800042E060E080E0B2DD13D18091E10082FFC0
:100890000AC08091E20082FF06C08091E1008B7F58
:1008A0008093E100F4DCFF91EF91BF91AF919F91B4
:1008B0008F917F916F915F914F913F912F910F9009
:1008C0000FBE0F901F9018951F93CF93DF9300D00A
:1008D000CDB7DEB7EEE9F1E086EA91E02091F100D4
:1008E00021938E179F07D1F780919E0190919F01D0
:1008F000492F50E04A30510508F0D2C0FA01E65CB9
:10090000FF4FCAC2803809F4BCC0823809F0C8C0A1
:100910008091A20187708093E9008091EB00109292
:10092000E9009091E800977F9093E80085FB882785
:1009300080F98093F1001092F10080C0282F2D7F64
:1009400009F0AEC0823009F09CC08091A0018111F5
:1009500027C08091A201877009F493C08093E900B9
:100960002091EB0020FF8DC0933021F48091EB00AB
:10097000806214C09091EB0090619093EB0021E0B5
:1009800030E0A90102C0440F551F8A95E2F7409359
:10099000EA001092EA008091EB0088608093EB00FF
:1009A0001092E9008091E800877F4BC0811178C0E8
:1009B0001091A0018091E800877F8093E8003DDDE1
:1009C0008091E80080FD04C08EB38111F9CF59C039
:1009D000812F8F7711F492E001C093E09EBB806875
:1009E0008093E3004EC08058823008F059C0AE01B9
:1009F0004F5F5F4F6091A2018091A0019091A10192
:100A0000A6DCBC01892B09F43CC09091E800977FDB
:100A10009093E80089819A81E0DD8091E8008B77EE
:100A20008093E8002EC08038D9F58091E800877F58
:100A30008093E80080919C018093F1008091E80010
:100A40008E778093E800F9DC1CC0811129C0809169
:100A5000A0019091A101992702979CF48091E80050
:100A6000877F8093E8008091A00180939C01E5DC62
:100A700080919C01811102C083E001C084E08EBBA3
:100A8000FADB8091E80083FF0DC08091EB0080626B
:100A90008093EB008091E800877F8093E80002C09C
:100AA000F3DBEFCF0F900F90DF91CF911F9108955F
:100AB0000895CF938EB3882359F0C091E900C77091
:100AC0001092E9008091E80083FDFEDEC093E9000A
:100AD000CF9108958F929F92AF92BF92CF92DF9263
:100AE000EF92FF920F931F93CF93DF9300D01F924B
:100AF000CDB7DEB77C01CDB6DEB68091E80083FFCE
:100B0000EFC0F701808190E02091A2013091A30114
:100B10002817390709F0E4C080919F01833009F458
:100B200091C030F4813071F0823009F4C1C0D8C076
:100B30008A3009F4A6C08B3009F491C0893009F0DD
:100B4000CFC04DC080919E01813A09F0C9C08DB6D9
:100B50009EB68091E800877F8093E8001A82198210
:100B60008091A0011091A1018B83F7018781482F0B
:100B700050E08DB79EB7841B950B0FB6F8949EBFBF
:100B80000FBE8DBFEDB7FEB731965F0160E070E03C
:100B9000CF019ED14FEF410F8E010F5F1F4F950187
:100BA000BE016D5F7F4FC7017EDBF70185819681B6
:100BB000009721F0478150E0B50181D11092E90002
:100BC00069817A81C501B3DC8091E8008B778093DD
:100BD000E8000FB6F8949EBE0FBE8DBE81C0809116
:100BE0009E01813209F07CC08091E800877F80936C
:100BF000E8000091A4011091A501A090A001B0907F
:100C0000A1018DB79EB7801B910B0FB6F8949EBFC4
:100C10000FBE8DBFEDB7FEB731964F01B801CF01C2
:100C200033DD4FEF4B0D94016A2DC70158DB8091E6
:100C3000E8008E778093E8000FB6F894DEBE0FBE12
:100C4000CDBE4EC080919E01813A09F049C080918D
:100C5000E800877F8093E800F701808539C08091A4
:100C60009E018132E9F58091E800877F8093E8005A
:100C70009091A00181E0911101C080E0F70180878F
:100C80002EC080919E01813259F58091E800877FC6
:100C90008093E8008091A0019091A101882736E01F
:100CA000969587953A95E1F7F7019287818717C066
:100CB00080919E01813AA1F48091E800877F809322
:100CC000E800F70181859285969587959695879599
:100CD0008093F1008091E8008E778093E800ADDB8F
:100CE0000FB6F894DEBE0FBECDBE0F900F900F90E2
:100CF000DF91CF911F910F91FF90EF90DF90CF90F8
:100D0000BF90AF909F908F900895CF93DF93FC0199
:100D1000DC01189685E0ED0119928A95E9F781E0EA
:100D2000808784EF91E092878187828193812481FB
:100D3000211102C0C0E001C0C4E0D18149DB8C2B8D
:100D4000482F426061EC8D2FDF91CF914FCB5F92A6
:100D50006F927F928F929F92AF92BF92CF92DF92CB
:100D6000EF92FF920F931F93CF93DF9300D01F92C8
:100D7000CDB7DEB77C01ADB6BEB68EB3843009F018
:100D800073C0F70181818093E9008091E80085FFBD
:100D90006BC08DB69EB6478150E08DB79EB7841B61
:100DA000950B0FB6F8949EBF0FBE8DBFEDB7FEB783
:100DB00031966F011B821A82198260E070E0CF01C8
:100DC00087D08E010F5F1F4F960140E0BE016D5F1F
:100DD0007F4FC70168DA582EF70181859285892BEC
:100DE00029F011E083859485892B09F010E0F70143
:100DF000658076806114710481F049815A81B30164
:100E0000C60150D001E0892B09F400E0F7014781C9
:100E100050E0B601C30153D001C000E089819A813E
:100E2000892BE9F0511004C0011102C010FF17C056
:100E3000F701818592859487838781818093E9007A
:100E40008B8181118093F10069817A8140E050E0CB
:100E5000C6013DDB8091E8008E778093E8000FB6F5
:100E6000F8949EBE0FBE8DBE0FB6F894BEBE0FBEE8
:100E7000ADBE0F900F900F90DF91CF911F910F910A
:100E8000FF90EF90DF90CF90BF90AF909F908F90AA
:100E90007F906F905F900895EE0FFF1F0590F49183
:100EA000E02D0994FB01DC0104C08D9101908019B3
:100EB00021F441505040C8F7881B990B0895FB015D
:100EC000DC0102C001900D9241505040D8F70895C6
:100ED000DC0101C06D9341505040E0F70895F89453
:020EE000FFCF42
:0E0EE2000001080000130104000000000000E1
:00000001FF
